{
  "contractName": "RandomFaas",
  "abi": [
    {
      "constant": true,
      "inputs": [
        {
          "name": "",
          "type": "uint256"
        }
      ],
      "name": "GroupOption",
      "outputs": [
        {
          "name": "NoQuitFlag",
          "type": "bool"
        },
        {
          "name": "CloseTime",
          "type": "uint256"
        }
      ],
      "payable": false,
      "stateMutability": "view",
      "type": "function"
    },
    {
      "constant": true,
      "inputs": [
        {
          "name": "",
          "type": "uint256"
        },
        {
          "name": "",
          "type": "address"
        },
        {
          "name": "",
          "type": "uint256"
        }
      ],
      "name": "RandomGroup",
      "outputs": [
        {
          "name": "randomNum",
          "type": "uint256"
        },
        {
          "name": "signature",
          "type": "bytes32"
        },
        {
          "name": "value",
          "type": "uint256"
        }
      ],
      "payable": false,
      "stateMutability": "view",
      "type": "function"
    },
    {
      "constant": true,
      "inputs": [
        {
          "name": "",
          "type": "uint256"
        },
        {
          "name": "",
          "type": "uint256"
        }
      ],
      "name": "GroupList",
      "outputs": [
        {
          "name": "",
          "type": "address"
        }
      ],
      "payable": false,
      "stateMutability": "view",
      "type": "function"
    },
    {
      "constant": true,
      "inputs": [],
      "name": "counts",
      "outputs": [
        {
          "name": "",
          "type": "uint256"
        }
      ],
      "payable": false,
      "stateMutability": "view",
      "type": "function"
    },
    {
      "constant": true,
      "inputs": [],
      "name": "owner",
      "outputs": [
        {
          "name": "",
          "type": "address"
        }
      ],
      "payable": false,
      "stateMutability": "view",
      "type": "function"
    },
    {
      "constant": true,
      "inputs": [],
      "name": "limit",
      "outputs": [
        {
          "name": "",
          "type": "uint256"
        }
      ],
      "payable": false,
      "stateMutability": "view",
      "type": "function"
    },
    {
      "inputs": [
        {
          "name": "_owner",
          "type": "address"
        },
        {
          "name": "_countdown",
          "type": "uint256"
        },
        {
          "name": "_limit",
          "type": "uint256"
        }
      ],
      "payable": false,
      "stateMutability": "nonpayable",
      "type": "constructor"
    },
    {
      "payable": true,
      "stateMutability": "payable",
      "type": "fallback"
    },
    {
      "anonymous": false,
      "inputs": [
        {
          "indexed": false,
          "name": "victim",
          "type": "address"
        }
      ],
      "name": "quitActor",
      "type": "event"
    },
    {
      "anonymous": false,
      "inputs": [
        {
          "indexed": false,
          "name": "group",
          "type": "address"
        },
        {
          "indexed": false,
          "name": "startTime",
          "type": "uint256"
        }
      ],
      "name": "startCountin",
      "type": "event"
    },
    {
      "anonymous": false,
      "inputs": [
        {
          "indexed": false,
          "name": "counts",
          "type": "uint256"
        }
      ],
      "name": "NeedNewGroup",
      "type": "event"
    },
    {
      "anonymous": false,
      "inputs": [
        {
          "indexed": false,
          "name": "group",
          "type": "address"
        },
        {
          "indexed": false,
          "name": "randomNumber",
          "type": "uint256"
        }
      ],
      "name": "randomOutput",
      "type": "event"
    },
    {
      "constant": false,
      "inputs": [],
      "name": "deposit",
      "outputs": [],
      "payable": true,
      "stateMutability": "payable",
      "type": "function"
    },
    {
      "constant": false,
      "inputs": [],
      "name": "withdraw",
      "outputs": [],
      "payable": false,
      "stateMutability": "nonpayable",
      "type": "function"
    },
    {
      "constant": false,
      "inputs": [],
      "name": "createGroup",
      "outputs": [],
      "payable": false,
      "stateMutability": "nonpayable",
      "type": "function"
    },
    {
      "constant": false,
      "inputs": [],
      "name": "stakeJoin",
      "outputs": [],
      "payable": true,
      "stateMutability": "payable",
      "type": "function"
    },
    {
      "constant": false,
      "inputs": [
        {
          "name": "_randomNum",
          "type": "uint256"
        },
        {
          "name": "_count",
          "type": "uint256"
        }
      ],
      "name": "commitRandom",
      "outputs": [],
      "payable": false,
      "stateMutability": "nonpayable",
      "type": "function"
    },
    {
      "constant": false,
      "inputs": [
        {
          "name": "_message",
          "type": "bytes32"
        },
        {
          "name": "_signature",
          "type": "bytes"
        },
        {
          "name": "_count",
          "type": "uint256"
        }
      ],
      "name": "commitSignRandom",
      "outputs": [],
      "payable": false,
      "stateMutability": "nonpayable",
      "type": "function"
    },
    {
      "constant": false,
      "inputs": [
        {
          "name": "hash",
          "type": "bytes32"
        },
        {
          "name": "sig",
          "type": "bytes"
        }
      ],
      "name": "ecrecovery",
      "outputs": [
        {
          "name": "",
          "type": "address"
        }
      ],
      "payable": false,
      "stateMutability": "nonpayable",
      "type": "function"
    },
    {
      "constant": false,
      "inputs": [
        {
          "name": "_count",
          "type": "uint256"
        }
      ],
      "name": "closeProcess",
      "outputs": [
        {
          "name": "_result",
          "type": "bytes32"
        }
      ],
      "payable": false,
      "stateMutability": "nonpayable",
      "type": "function"
    },
    {
      "constant": false,
      "inputs": [
        {
          "name": "_count",
          "type": "uint256"
        }
      ],
      "name": "punishQuitter",
      "outputs": [],
      "payable": false,
      "stateMutability": "nonpayable",
      "type": "function"
    },
    {
      "constant": false,
      "inputs": [
        {
          "name": "_count",
          "type": "uint256"
        }
      ],
      "name": "cancelProcess",
      "outputs": [],
      "payable": false,
      "stateMutability": "nonpayable",
      "type": "function"
    }
  ],
  "bytecode": "0x608060405234801561001057600080fd5b50604051606080610d908339810180604052606081101561003057600080fd5b5080516020820151604090920151909190600160a060020a038316151561005657600080fd5b81151561006257600080fd5b80151561006e57600080fd5b60008054600160a060020a03909416600160a060020a031990941693909317909255600355600255610ceb806100a56000396000f3fe6080604052600436106100e55763ffffffff7c01000000000000000000000000000000000000000000000000000000006000350416630b14a08581146100ef57806312c9325214610134578063249b0cba146101645780632d6f11dd146102205780633479d2fb1461027d5780633ccfd60b1461028557806350ee4f5b1461029a578063575185ed146102e6578063691d97a1146102fb57806377d32e9414610337578063817cc1ea146103f15780638da5cb5b14610406578063a4d66daf1461041b578063d0e30db0146100e5578063dbcda54014610430578063f3ec03c51461045a575b6100ed610484565b005b3480156100fb57600080fd5b506101196004803603602081101561011257600080fd5b503561049a565b60408051921515835260208301919091528051918290030190f35b34801561014057600080fd5b506100ed6004803603604081101561015757600080fd5b50803590602001356104b9565b34801561017057600080fd5b506100ed6004803603606081101561018757600080fd5b813591908101906040810160208201356401000000008111156101a957600080fd5b8201836020820111156101bb57600080fd5b803590602001918460018302840111640100000000831117156101dd57600080fd5b91908080601f01602080910402602001604051908101604052809392919081815260200183838082843760009201919091525092955050913592506104fc915050565b34801561022c57600080fd5b5061025f6004803603606081101561024357600080fd5b50803590600160a060020a036020820135169060400135610519565b60408051938452602084019290925282820152519081900360600190f35b6100ed610568565b34801561029157600080fd5b506100ed610622565b3480156102a657600080fd5b506102ca600480360360408110156102bd57600080fd5b5080359060200135610672565b60408051600160a060020a039092168252519081900360200190f35b3480156102f257600080fd5b506100ed6106a9565b34801561030757600080fd5b506103256004803603602081101561031e57600080fd5b50356104fc565b60408051918252519081900360200190f35b34801561034357600080fd5b506102ca6004803603604081101561035a57600080fd5b8135919081019060408101602082013564010000000081111561037c57600080fd5b82018360208201111561038e57600080fd5b803590602001918460018302840111640100000000831117156103b057600080fd5b91908080601f016020809104026020016040519081016040528093929190818152602001838380828437600092019190915250929550610778945050505050565b3480156103fd57600080fd5b5061032561084d565b34801561041257600080fd5b506102ca610853565b34801561042757600080fd5b50610325610862565b34801561043c57600080fd5b506100ed6004803603602081101561045357600080fd5b5035610868565b34801561046657600080fd5b506100ed6004803603602081101561047d57600080fd5b5035610a5a565b6000341161049157600080fd5b60048054339190fe5b6007602052600090815260409020805460019091015460ff9091169082565b60015481106104c757600080fd5b8115156104d357600080fd5b600081815260056020908152604080832033845290915281206104f891849080610b14565b5050565b600081815260056020908152604080832033845290915281208054fe5b60056020528260005260406000206020528160005260406000208181548110151561054057fe5b6000918252602090912060039091020180546001820154600290920154909450909250905083565b6002546001546000908152600660205260409020541061058757600080fd5b60015460408051918252517f573752040a84b4dbb036eaabb4c06799092a9a845ad40e3aa53546a6cf6efa039181900360200190a1600154600090815260056020908152604080832033845290915281206105e3918034610b14565b6001805460009081526006602090815260408220805493840181558252902001805473ffffffffffffffffffffffffffffffffffffffff191633179055565b600054600160a060020a031633811461063a57600080fd5b60008054604051600160a060020a0390911691303180156108fc02929091818181858888f19350505050151561066f57600080fd5b50565b60066020528160005260406000208181548110151561068d57fe5b600091825260209091200154600160a060020a03169150829050565b600154600090815260056020908152604080832033845290915281206106d0918080610b14565b6001805481019055565b60008481526006602052604090205481101561077157600084815260066020526040902080548290811061070a57fe5b6000918252602080832090910154868352600582526040808420600160a060020a039092168085528284528185203386529290935290922054825491945090811061075157fe5b6000918252602090912060016003909202018101549390931892016106da565b5050919050565b600080600080845160411415156107955760009350505050610847565b50505060208201516040830151604184015160ff16601b8110156107b757601b015b8060ff16601b141580156107cf57508060ff16601c14155b156107e05760009350505050610847565b6040805160008152602080820180845289905260ff8416828401526060820186905260808201859052915160019260a0808401939192601f1981019281900390910190855afa158015610837573d6000803e3d6000fd5b5050506020604051035193505050505b92915050565b60015481565b600054600160a060020a031681565b60025481565b6000806000610875610c40565b6000805b600087815260066020526040902054811015610a1c5760008781526006602052604090208054829081106108a957fe5b6000918252602080832090910154898352600582526040808420600160a060020a03909216808552828452818520338652929093529092205482549197509081106108f057fe5b9060005260206000209060030201600001546000148061099a57506000878152600560209081526040808320600160a060020a03891684529091528082203383529120548154811061093e57fe5b6000918252602082206001600392909202010154901a7f0100000000000000000000000000000000000000000000000000000000000000027fff0000000000000000000000000000000000000000000000000000000000000016155b156109ed576000878152600560209081526040808320600160a060020a0389168452909152808220338352912054815481106109d257fe5b90600052602060002090600302016002015486019550610a14565b600182019185908490600a8110610a0057fe5b600160a060020a0390921660209290920201525b600101610879565b50610a2885600a610c04565b925060005b600a811015610a51578281600a8110610a4257fe5b60200201519450600101610a2d565b50505050505050565b60008181526007602052604090205460ff1615610a7657600080fd5b600080805b600084815260066020526040902054811015610b0e576000848152600660205260409020805482908110610aab57fe5b6000918252602080832090910154868352600582526040808420600160a060020a0390921680855282845281852033865292909352909220548254919550908110610af257fe5b9060005260206000209060030201600201549150600101610a7b565b50505050565b835460008582610b278260018301610c60565b81548110610b3157fe5b9060005260206000209060030201905060008683815481101515610b5157fe5b9060005260206000209060030201905085816000015411610b725785610b75565b80545b82557fff000000000000000000000000000000000000000000000000000000000000007f0100000000000000000000000000000000000000000000000000000000000000600087901a021615610bd15760018201859055610bdc565b600180820154908301555b83816002015411610bed5783610bf3565b80600201545b826002018190555050505050505050565b6000808211610c0f57fe5b60008284811515610c1c57fe5b0490508284811515610c2a57fe5b068184020184141515610c3957fe5b9392505050565b61014060405190810160405280600a906020820280388339509192915050565b815481835581811115610c8c57600302816003028360005260206000209182019101610c8c9190610c91565b505050565b610cbc91905b80821115610cb8576000808255600182018190556002820155600301610c97565b5090565b9056fea165627a7a72305820e3f63235ac71cfa68ba100dae728146c1a639a5b2e16fe41f6496d999dc2967b0029",
  "source": "pragma solidity>=0.4.20;\n\n/*\n   The random faas provide the interface that smooths the random function \n   and make it simpler for users to call \n   Author : waylon(waylon@genaro.network)\n  \n */\n\ncontract RandomFaas {\n\n\taddress payable public owner;\n\n\tuint public counts;\n\tuint public limit;\n\tuint countdown; //in block\n\taddress[] depositAdderesses;\n\n\tstruct Req {\n\t\tuint randomNum;\n\t\tbytes32 signature;\t\n\t\tuint value;\n\t}\n\t\n\tstruct Option {\n\t\tbool NoQuitFlag;\n\t\tuint CloseTime; //in block \n\t\t\n\t}\n\t\n\n\tmapping (uint => mapping (address => Req[])) public RandomGroup;\n\tmapping (uint => address[]) public GroupList;\n\tmapping (uint => Option) public GroupOption;\n\t\n\n\tevent quitActor(address victim);\n\tevent startCountin(address group, uint startTime);\n\tevent NeedNewGroup(uint counts);\n\tevent randomOutput(address group, uint randomNumber);\n\n    constructor (address payable _owner, uint _countdown, uint _limit) public \n\t{\n\t\trequire(_owner != address(0));\n\t\trequire(_countdown != 0);\n\t\trequire(_limit != 0);\n\n\t\towner = _owner;\n\t\tcountdown = _countdown;\n\t\tlimit = _limit;\n\t}\n\t\n\t//deposit\n\tfunction () external payable {\n\t\tdeposit();\n\t}\n\n\tfunction deposit () public payable {\n\t\trequire(msg.value>0);\n\t\tdepositAdderesses[depositAdderesses.length]=msg.sender;\n\t}\n\t\n\tfunction withdraw () public \n\tonly(owner)\n\t{\n\t\trequire(owner.send(address(this).balance));\t\n\t}\n\t\n\t\n\tfunction createGroup () public\n\t{\n\t\tupdateValue(RandomGroup[counts][msg.sender],0,0,0);\n\t\tcounts++;\n\t}\n\n\t\n\tfunction stakeJoin () public payable\n\t{\n\t\trequire(GroupList[counts].length<limit);\n\t\temit NeedNewGroup(counts);\n\t\t\n\t\tupdateValue(RandomGroup[counts][msg.sender],0,bytes32(0),msg.value);\n\t\tGroupList[counts].push(msg.sender);\n\n\t}\n\t\n\tfunction updateValue (Req[] storage group, uint _randomNum, bytes32 _signature,uint _value) \n\tinternal\n\t{\n\t\tuint _ptr = group.length;\n\n\t\tReq storage newMember = group[group.length++];\n        Req storage oldMember = group[_ptr];\n\t    \n\t\tnewMember.randomNum = oldMember.randomNum>_randomNum?oldMember.randomNum:_randomNum;\n\n        if(_signature[0] != 0){\n\t\t\tnewMember.signature = _signature;\n\t    }else{\n\t\t\tnewMember.signature = oldMember.signature;\n\t\t}\n\n\n\t    newMember.value = oldMember.value> _value?oldMember.value:_value;\n\n\t}\n\t\n\tfunction commitRandom (uint _randomNum, uint _count) public\n\t{\n\t\trequire(_count<counts);\n\t\trequire(_randomNum != 0);\n        \n\t    updateValue(RandomGroup[_count][msg.sender],_randomNum,bytes32(0),0);\n\n\t}\n\n\tfunction commitSignRandom (bytes32 _message, bytes memory _signature, uint _count) public\n\t{  \n\t\tReq storage latestInfo = RandomGroup[_count][msg.sender][RandomGroup[_count][msg.sender].length];\n\t\trequire(latestInfo.signature[0] == 0);\n        require(ecrecovery(_message,_signature)==msg.sender);\n\t\n \t    updateValue(RandomGroup[_count][msg.sender],0,_message,0);\t\n\t\tGroupOption[_count].NoQuitFlag = true;\n\t\tGroupOption[_count].CloseTime = block.number+countdown;\n\n\t}\n\t\n//https://blog.csdn.net/code_segment/article/details/79952722\n//for the signature recovery function with minor changes\n\nfunction ecrecovery(bytes32 hash, bytes memory sig) public returns (address) {\n    bytes32 r;\n    bytes32 s;\n    uint8 v;\n\n    if (sig.length != 65) {\n      return address(0);\n    }\n\n    assembly {\n      r := mload(add(sig, 32))\n      s := mload(add(sig, 64))\n      v := and(mload(add(sig, 65)), 255)\n    }\n\n    // https://github.com/ethereum/go-ethereum/issues/2053\n    if (v < 27) {\n      v += 27;\n    }\n\n    if (v != 27 && v != 28) {\n      return address(0);\n    }\n\n    /* prefix might be needed for geth only\n     * https://github.com/ethereum/go-ethereum/issues/3731\n     */\n    // bytes memory prefix = \"\\x19Ethereum Signed Message:\\n32\";\n    // hash = sha3(prefix, hash);\n\n    return ecrecover(hash, v, r, s);\n  }\n\n \tfunction closeProcess (uint _count) public  returns (bytes32 _result)\n \t{\n\t\trequire(RandomGroup[_count][msg.sender][RandomGroup[_count][msg.sender].length].randomNum != 0);\n\t\trequire(RandomGroup[_count][msg.sender][RandomGroup[_count][msg.sender].length].signature[0] != 0);\n\t\t\n\t\taddress _addr;\n\t\t//to do: in certain time should not do closeProcess\n\t\tif (block.number >= GroupOption[_count].CloseTime){\n\n\t\t\t//calculate the random result\n\t\t\tfor (uint cnt = 0; cnt < GroupList[_count].length; cnt++){\n\t\t\t\t_addr = GroupList[_count][cnt];\n\t\t\t\t_result = _result ^ RandomGroup[_count][_addr][RandomGroup[_count][msg.sender].length].signature;\n\t\t\t}\t\t\t\n\t\t}\n\n\t}\n\t\n\n\tfunction punishQuitter (uint _count) public {\n\t\t\n\t\tuint _punish;\n\t\taddress _addr;\n\t\tuint _payback;\n\t\t\n\t\taddress[10] memory _bounter;\n\t\tuint counter;\n\n\t\tfor(uint cnt=0; cnt< GroupList[_count].length;cnt++){\n\t\t\t_addr = GroupList[_count][cnt];\n\t\t\tif(RandomGroup[_count][_addr][RandomGroup[_count][msg.sender].length].randomNum == 0 || RandomGroup[_count][_addr][RandomGroup[_count][msg.sender].length].signature[0] == 0){\n\t\t\t\t_punish += RandomGroup[_count][_addr][RandomGroup[_count][msg.sender].length].value;\n\t\t\t}else{\n\t\t\t\t_bounter[counter++]=_addr;\n\t\t\t}\n\t\t}\n\n\t\t_payback =safeDiv(_punish,_bounter.length);\n\n\t\tfor(uint cnt=0;cnt<_bounter.length;cnt++){\n\t\t\t_addr = _bounter[cnt];\n\t\t\t_addr.call.value(_payback).gas(2300); //no sure about the result, need to check\n\t\t\t//_addr.transfer(_payback); //why it can not work?!\n\t\t}\n\t}\n\t\n\tfunction cancelProcess (uint _count) public{\t\n\n\t\trequire(GroupOption[_count].NoQuitFlag == false);\n\n\t\taddress _addr;\n\t\tuint _reimbursement;\n\t\t// return all the money back.\n\t\tfor(uint cnt = 0; cnt <GroupList[_count].length;cnt++){\n\t\t\t_addr = GroupList[_count][cnt];\n\t\t\t_reimbursement = RandomGroup[_count][_addr][RandomGroup[_count][msg.sender].length].value;\n\n\t\t\tif(_reimbursement != 0){\n\t\t\t\t_addr.call.value(_reimbursement).gas(2300); //same here\n\t\t\t \t//_addr.send(_reimbursement);\n\t\t\t}\n\t\t}\n\t\t\n\t}\n\t\n\tmodifier only(address _addr) { \n\t\trequire(msg.sender == _addr);\n\t\t_; \n\t}\n\n\n  function safeDiv(uint a, uint b) internal returns (uint) {\n    assert(b > 0);\n    uint c = a / b;\n    assert(a == b * c + a % b);\n    return c;\n  }\t\n\n\n}\n",
  "sourcePath": "/root/Genaro/Genaro/contracts/RandomFaas.sol",
  "compiler": {
    "name": "solc",
    "version": "0.5.0+commit.1d4f565a.Emscripten.clang"
  },
  "schemaVersion": "3.0.1",
  "updatedAt": "2019-01-24T13:53:50.693Z",
  "devdoc": {
    "methods": {}
  },
  "userdoc": {
    "methods": {}
  }
}