{
  "contractName": "RandomFaas",
  "abi": [
    {
      "constant": true,
      "inputs": [
        {
          "name": "",
          "type": "uint256"
        }
      ],
      "name": "GroupOption",
      "outputs": [
        {
          "name": "NoQuitFlag",
          "type": "bool"
        },
        {
          "name": "CloseTime",
          "type": "uint256"
        }
      ],
      "payable": false,
      "stateMutability": "view",
      "type": "function"
    },
    {
      "constant": true,
      "inputs": [
        {
          "name": "",
          "type": "uint256"
        },
        {
          "name": "",
          "type": "address"
        },
        {
          "name": "",
          "type": "uint256"
        }
      ],
      "name": "RandomGroup",
      "outputs": [
        {
          "name": "randomNum",
          "type": "uint256"
        },
        {
          "name": "signature",
          "type": "bytes32"
        },
        {
          "name": "value",
          "type": "uint256"
        }
      ],
      "payable": false,
      "stateMutability": "view",
      "type": "function"
    },
    {
      "constant": true,
      "inputs": [
        {
          "name": "",
          "type": "uint256"
        },
        {
          "name": "",
          "type": "uint256"
        }
      ],
      "name": "GroupList",
      "outputs": [
        {
          "name": "",
          "type": "address"
        }
      ],
      "payable": false,
      "stateMutability": "view",
      "type": "function"
    },
    {
      "constant": true,
      "inputs": [],
      "name": "counts",
      "outputs": [
        {
          "name": "",
          "type": "uint256"
        }
      ],
      "payable": false,
      "stateMutability": "view",
      "type": "function"
    },
    {
      "constant": true,
      "inputs": [],
      "name": "owner",
      "outputs": [
        {
          "name": "",
          "type": "address"
        }
      ],
      "payable": false,
      "stateMutability": "view",
      "type": "function"
    },
    {
      "constant": true,
      "inputs": [],
      "name": "limit",
      "outputs": [
        {
          "name": "",
          "type": "uint256"
        }
      ],
      "payable": false,
      "stateMutability": "view",
      "type": "function"
    },
    {
      "inputs": [
        {
          "name": "_owner",
          "type": "address"
        },
        {
          "name": "_countdown",
          "type": "uint256"
        },
        {
          "name": "_limit",
          "type": "uint256"
        }
      ],
      "payable": false,
      "stateMutability": "nonpayable",
      "type": "constructor"
    },
    {
      "payable": true,
      "stateMutability": "payable",
      "type": "fallback"
    },
    {
      "anonymous": false,
      "inputs": [
        {
          "indexed": false,
          "name": "victim",
          "type": "address"
        }
      ],
      "name": "quitActor",
      "type": "event"
    },
    {
      "anonymous": false,
      "inputs": [
        {
          "indexed": false,
          "name": "group",
          "type": "address"
        },
        {
          "indexed": false,
          "name": "startTime",
          "type": "uint256"
        }
      ],
      "name": "startCountin",
      "type": "event"
    },
    {
      "anonymous": false,
      "inputs": [
        {
          "indexed": false,
          "name": "counts",
          "type": "uint256"
        }
      ],
      "name": "NeedNewGroup",
      "type": "event"
    },
    {
      "anonymous": false,
      "inputs": [
        {
          "indexed": false,
          "name": "group",
          "type": "address"
        },
        {
          "indexed": false,
          "name": "randomNumber",
          "type": "uint256"
        }
      ],
      "name": "randomOutput",
      "type": "event"
    },
    {
      "constant": false,
      "inputs": [],
      "name": "deposit",
      "outputs": [],
      "payable": true,
      "stateMutability": "payable",
      "type": "function"
    },
    {
      "constant": false,
      "inputs": [],
      "name": "withdraw",
      "outputs": [],
      "payable": false,
      "stateMutability": "nonpayable",
      "type": "function"
    },
    {
      "constant": false,
      "inputs": [],
      "name": "createGroup",
      "outputs": [],
      "payable": false,
      "stateMutability": "nonpayable",
      "type": "function"
    },
    {
      "constant": false,
      "inputs": [],
      "name": "stakeJoin",
      "outputs": [],
      "payable": true,
      "stateMutability": "payable",
      "type": "function"
    },
    {
      "constant": false,
      "inputs": [
        {
          "name": "_randomNum",
          "type": "uint256"
        },
        {
          "name": "_count",
          "type": "uint256"
        }
      ],
      "name": "commitRandom",
      "outputs": [],
      "payable": false,
      "stateMutability": "nonpayable",
      "type": "function"
    },
    {
      "constant": false,
      "inputs": [
        {
          "name": "_message",
          "type": "bytes32"
        },
        {
          "name": "_signature",
          "type": "bytes"
        },
        {
          "name": "_count",
          "type": "uint256"
        }
      ],
      "name": "commitSignRandom",
      "outputs": [],
      "payable": false,
      "stateMutability": "nonpayable",
      "type": "function"
    },
    {
      "constant": false,
      "inputs": [
        {
          "name": "_count",
          "type": "uint256"
        }
      ],
      "name": "closeProcess",
      "outputs": [
        {
          "name": "_result",
          "type": "bytes32"
        }
      ],
      "payable": false,
      "stateMutability": "nonpayable",
      "type": "function"
    },
    {
      "constant": false,
      "inputs": [
        {
          "name": "_count",
          "type": "uint256"
        }
      ],
      "name": "punishQuitter",
      "outputs": [],
      "payable": false,
      "stateMutability": "nonpayable",
      "type": "function"
    },
    {
      "constant": false,
      "inputs": [
        {
          "name": "_count",
          "type": "uint256"
        }
      ],
      "name": "cancelProcess",
      "outputs": [],
      "payable": false,
      "stateMutability": "nonpayable",
      "type": "function"
    }
  ],
  "bytecode": "0x608060405234801561001057600080fd5b50604051606080610bf68339810180604052606081101561003057600080fd5b5080516020820151604090920151909190600160a060020a038316151561005657600080fd5b81151561006257600080fd5b80151561006e57600080fd5b60008054600160a060020a03909416600160a060020a031990941693909317909255600355600255610b51806100a56000396000f3fe6080604052600436106100da5763ffffffff7c01000000000000000000000000000000000000000000000000000000006000350416630b14a08581146100e457806312c9325214610129578063249b0cba146101595780632d6f11dd146102155780633479d2fb146102725780633ccfd60b1461027a57806350ee4f5b1461028f578063575185ed146102db578063691d97a1146102f0578063817cc1ea1461032c5780638da5cb5b14610341578063a4d66daf14610356578063d0e30db0146100da578063dbcda5401461036b578063f3ec03c514610395575b6100e26103bf565b005b3480156100f057600080fd5b5061010e6004803603602081101561010757600080fd5b50356103d5565b60408051921515835260208301919091528051918290030190f35b34801561013557600080fd5b506100e26004803603604081101561014c57600080fd5b50803590602001356103f4565b34801561016557600080fd5b506100e26004803603606081101561017c57600080fd5b8135919081019060408101602082013564010000000081111561019e57600080fd5b8201836020820111156101b057600080fd5b803590602001918460018302840111640100000000831117156101d257600080fd5b91908080601f0160208091040260200160405190810160405280939291908181526020018383808284376000920191909152509295505091359250610437915050565b34801561022157600080fd5b506102546004803603606081101561023857600080fd5b50803590600160a060020a036020820135169060400135610454565b60408051938452602084019290925282820152519081900360600190f35b6100e26104a3565b34801561028657600080fd5b506100e261055d565b34801561029b57600080fd5b506102bf600480360360408110156102b257600080fd5b50803590602001356105ad565b60408051600160a060020a039092168252519081900360200190f35b3480156102e757600080fd5b506100e26105e4565b3480156102fc57600080fd5b5061031a6004803603602081101561031357600080fd5b5035610437565b60408051918252519081900360200190f35b34801561033857600080fd5b5061031a6106b3565b34801561034d57600080fd5b506102bf6106b9565b34801561036257600080fd5b5061031a6106c8565b34801561037757600080fd5b506100e26004803603602081101561038e57600080fd5b50356106ce565b3480156103a157600080fd5b506100e2600480360360208110156103b857600080fd5b50356108c0565b600034116103cc57600080fd5b60048054339190fe5b6007602052600090815260409020805460019091015460ff9091169082565b600154811061040257600080fd5b81151561040e57600080fd5b600081815260056020908152604080832033845290915281206104339184908061097a565b5050565b600081815260056020908152604080832033845290915281208054fe5b60056020528260005260406000206020528160005260406000208181548110151561047b57fe5b6000918252602090912060039091020180546001820154600290920154909450909250905083565b600254600154600090815260066020526040902054106104c257600080fd5b60015460408051918252517f573752040a84b4dbb036eaabb4c06799092a9a845ad40e3aa53546a6cf6efa039181900360200190a16001546000908152600560209081526040808320338452909152812061051e91803461097a565b6001805460009081526006602090815260408220805493840181558252902001805473ffffffffffffffffffffffffffffffffffffffff191633179055565b600054600160a060020a031633811461057557600080fd5b60008054604051600160a060020a0390911691303180156108fc02929091818181858888f1935050505015156105aa57600080fd5b50565b6006602052816000526040600020818154811015156105c857fe5b600091825260209091200154600160a060020a03169150829050565b6001546000908152600560209081526040808320338452909152812061060b91808061097a565b6001805481019055565b6000848152600660205260409020548110156106ac57600084815260066020526040902080548290811061064557fe5b6000918252602080832090910154868352600582526040808420600160a060020a039092168085528284528185203386529290935290922054825491945090811061068c57fe5b600091825260209091206001600390920201810154939093189201610615565b5050919050565b60015481565b600054600160a060020a031681565b60025481565b60008060006106db610aa6565b6000805b60008781526006602052604090205481101561088257600087815260066020526040902080548290811061070f57fe5b6000918252602080832090910154898352600582526040808420600160a060020a039092168085528284528185203386529290935290922054825491975090811061075657fe5b9060005260206000209060030201600001546000148061080057506000878152600560209081526040808320600160a060020a0389168452909152808220338352912054815481106107a457fe5b6000918252602082206001600392909202010154901a7f0100000000000000000000000000000000000000000000000000000000000000027fff0000000000000000000000000000000000000000000000000000000000000016155b15610853576000878152600560209081526040808320600160a060020a03891684529091528082203383529120548154811061083857fe5b9060005260206000209060030201600201548601955061087a565b600182019185908490600a811061086657fe5b600160a060020a0390921660209290920201525b6001016106df565b5061088e85600a610a6a565b925060005b600a8110156108b7578281600a81106108a857fe5b60200201519450600101610893565b50505050505050565b60008181526007602052604090205460ff16156108dc57600080fd5b600080805b60008481526006602052604090205481101561097457600084815260066020526040902080548290811061091157fe5b6000918252602080832090910154868352600582526040808420600160a060020a039092168085528284528185203386529290935290922054825491955090811061095857fe5b90600052602060002090600302016002015491506001016108e1565b50505050565b83546000858261098d8260018301610ac6565b8154811061099757fe5b90600052602060002090600302019050600086838154811015156109b757fe5b90600052602060002090600302019050858160000154116109d857856109db565b80545b82557fff000000000000000000000000000000000000000000000000000000000000007f0100000000000000000000000000000000000000000000000000000000000000600087901a021615610a375760018201859055610a42565b600180820154908301555b83816002015411610a535783610a59565b80600201545b826002018190555050505050505050565b6000808211610a7557fe5b60008284811515610a8257fe5b0490508284811515610a9057fe5b068184020184141515610a9f57fe5b9392505050565b61014060405190810160405280600a906020820280388339509192915050565b815481835581811115610af257600302816003028360005260206000209182019101610af29190610af7565b505050565b610b2291905b80821115610b1e576000808255600182018190556002820155600301610afd565b5090565b9056fea165627a7a7230582079fc4cf023d3b5392b93e2ab10cef644fb98ac55406fa08b26bb4a5a1b5945ec0029",
  "source": "pragma solidity>=0.4.20;\n\n/*\n   The random faas provide the interface that smooths the random function \n   and make it simpler for users to call \n   Author : waylon(waylon@genaro.network)\n  \n */\n\ncontract RandomFaas {\n\n\taddress payable public owner;\n\n\tuint public counts;\n\tuint public limit;\n\tuint countdown; //in block\n\taddress[] depositAdderesses;\n\n\tstruct Req {\n\t\tuint randomNum;\n\t\tbytes32 signature;\t\n\t\tuint value;\n\t}\n\t\n\tstruct Option {\n\t\tbool NoQuitFlag;\n\t\tuint CloseTime; //in block \n\t\t\n\t}\n\t\n\n\tmapping (uint => mapping (address => Req[])) public RandomGroup;\n\tmapping (uint => address[]) public GroupList;\n\tmapping (uint => Option) public GroupOption;\n\t\n\n\tevent quitActor(address victim);\n\tevent startCountin(address group, uint startTime);\n\tevent NeedNewGroup(uint counts);\n\tevent randomOutput(address group, uint randomNumber);\n\n    constructor (address payable _owner, uint _countdown, uint _limit) public \n\t{\n\t\trequire(_owner != address(0));\n\t\trequire(_countdown != 0);\n\t\trequire(_limit != 0);\n\n\t\towner = _owner;\n\t\tcountdown = _countdown;\n\t\tlimit = _limit;\n\t}\n\t\n\t//deposit\n\tfunction () external payable {\n\t\tdeposit();\n\t}\n\n\tfunction deposit () public payable {\n\t\trequire(msg.value>0);\n\t\tdepositAdderesses[depositAdderesses.length]=msg.sender;\n\t}\n\t\n\tfunction withdraw () public \n\tonly(owner)\n\t{\n\t\trequire(owner.send(address(this).balance));\t\n\t}\n\t\n\t\n\tfunction createGroup () public\n\t{\n\t\tupdateValue(RandomGroup[counts][msg.sender],0,0,0);\n\t\tcounts++;\n\t}\n\n\t\n\tfunction stakeJoin () public payable\n\t{\n\t\trequire(GroupList[counts].length<limit);\n\t\temit NeedNewGroup(counts);\n\t\t\n\t\tupdateValue(RandomGroup[counts][msg.sender],0,bytes32(0),msg.value);\n\t\tGroupList[counts].push(msg.sender);\n\n\t}\n\t\n\tfunction updateValue (Req[] storage group, uint _randomNum, bytes32 _signature,uint _value) \n\tinternal\n\t{\n\t\tuint _ptr = group.length;\n\n\t\tReq storage newMember = group[group.length++];\n        Req storage oldMember = group[_ptr];\n\t    \n\t\tnewMember.randomNum = oldMember.randomNum>_randomNum?oldMember.randomNum:_randomNum;\n\n        if(_signature[0] != 0){\n\t\t\tnewMember.signature = _signature;\n\t    }else{\n\t\t\tnewMember.signature = oldMember.signature;\n\t\t}\n\n\n\t    newMember.value = oldMember.value> _value?oldMember.value:_value;\n\n\t}\n\t\n\tfunction commitRandom (uint _randomNum, uint _count) public\n\t{\n\t\trequire(_count<counts);\n\t\trequire(_randomNum != 0);\n        \n\t    updateValue(RandomGroup[_count][msg.sender],_randomNum,bytes32(0),0);\n\n\t}\n\n\tfunction commitSignRandom (bytes32 _message, bytes memory _signature, uint _count) public\n\t{  \n\t\tReq storage latestInfo = RandomGroup[_count][msg.sender][RandomGroup[_count][msg.sender].length];\n\t\trequire(latestInfo.signature[0] == 0);\n        require(recover(_message,_signature)==msg.sender);\n\t\n \t    updateValue(RandomGroup[_count][msg.sender],0,_message,0);\t\n\t\tGroupOption[_count].NoQuitFlag = true;\n\t\tGroupOption[_count].CloseTime = block.number+countdown;\n\n\t}\n\t\n//from open-zepplin EC-Recovery\n  /**\n   * @dev Recover signer address from a message by using their signature\n   * @param _hash bytes32 message, the hash is the signed message. What is recovered is the signer address.\n   * @param _sig bytes signature, the signature is generated using web3.eth.sign()\n   */\n  function recover(bytes32 _hash, bytes memory _sig)\n    internal\n    pure\n    returns (address)\n  {\n    bytes32 r;\n    bytes32 s;\n    uint8 v;\n\n    // Check the signature length\n    if (_sig.length != 65) {\n      return (address(0));\n    }\n\n    // Divide the signature in r, s and v variables\n    // ecrecover takes the signature parameters, and the only way to get them\n    // currently is to use assembly.\n    // solium-disable-next-line security/no-inline-assembly\n    assembly {\n      r := mload(add(_sig, 32))\n      s := mload(add(_sig, 64))\n      v := byte(0, mload(add(_sig, 96)))\n    }\n\n    // Version of signature should be 27 or 28, but 0 and 1 are also possible versions\n    if (v < 27) {\n      v += 27;\n    }\n\n    // If the version is correct return the signer address\n    if (v != 27 && v != 28) {\n      return (address(0));\n    } else {\n      // solium-disable-next-line arg-overflow\n      return ecrecover(_hash, v, r, s);\n    }\n  }\n\n  /**\n   * toEthSignedMessageHash\n   * @dev prefix a bytes32 value with \"\\x19Ethereum Signed Message:\"\n   * and hash the result\n   */\n  function toEthSignedMessageHash(bytes32 _hash)\n    internal\n    pure\n    returns (bytes32)\n  {\n    // 32 is the length in bytes of hash,\n    // enforced by the type signature above\n    return keccak256(\n      abi.encodePacked(\"\\x19Ethereum Signed Message:\\n32\", _hash)\n    );\n  }\n\n \tfunction closeProcess (uint _count) public  returns (bytes32 _result)\n \t{\n\t\trequire(RandomGroup[_count][msg.sender][RandomGroup[_count][msg.sender].length].randomNum != 0);\n\t\trequire(RandomGroup[_count][msg.sender][RandomGroup[_count][msg.sender].length].signature[0] != 0);\n\t\t\n\t\taddress _addr;\n\t\t//to do: in certain time should not do closeProcess\n\t\tif (block.number >= GroupOption[_count].CloseTime){\n\n\t\t\t//calculate the random result\n\t\t\tfor (uint cnt = 0; cnt < GroupList[_count].length; cnt++){\n\t\t\t\t_addr = GroupList[_count][cnt];\n\t\t\t\t_result = _result ^ RandomGroup[_count][_addr][RandomGroup[_count][msg.sender].length].signature;\n\t\t\t}\t\t\t\n\t\t}\n\n\t}\n\t\n\n\tfunction punishQuitter (uint _count) public {\n\t\t\n\t\tuint _punish;\n\t\taddress _addr;\n\t\tuint _payback;\n\t\t\n\t\taddress[10] memory _bounter;\n\t\tuint counter;\n\n\t\tfor(uint cnt=0; cnt< GroupList[_count].length;cnt++){\n\t\t\t_addr = GroupList[_count][cnt];\n\t\t\tif(RandomGroup[_count][_addr][RandomGroup[_count][msg.sender].length].randomNum == 0 || RandomGroup[_count][_addr][RandomGroup[_count][msg.sender].length].signature[0] == 0){\n\t\t\t\t_punish += RandomGroup[_count][_addr][RandomGroup[_count][msg.sender].length].value;\n\t\t\t}else{\n\t\t\t\t_bounter[counter++]=_addr;\n\t\t\t}\n\t\t}\n\n\t\t_payback =safeDiv(_punish,_bounter.length);\n\n\t\tfor(uint cnt=0;cnt<_bounter.length;cnt++){\n\t\t\t_addr = _bounter[cnt];\n\t\t\t_addr.call.value(_payback).gas(2300); //no sure about the result, need to check\n\t\t\t//_addr.transfer(_payback); //why it can not work?!\n\t\t}\n\t}\n\t\n\tfunction cancelProcess (uint _count) public{\t\n\n\t\trequire(GroupOption[_count].NoQuitFlag == false);\n\n\t\taddress _addr;\n\t\tuint _reimbursement;\n\t\t// return all the money back.\n\t\tfor(uint cnt = 0; cnt <GroupList[_count].length;cnt++){\n\t\t\t_addr = GroupList[_count][cnt];\n\t\t\t_reimbursement = RandomGroup[_count][_addr][RandomGroup[_count][msg.sender].length].value;\n\n\t\t\tif(_reimbursement != 0){\n\t\t\t\t_addr.call.value(_reimbursement).gas(2300); //same here\n\t\t\t \t//_addr.send(_reimbursement);\n\t\t\t}\n\t\t}\n\t\t\n\t}\n\t\n\tmodifier only(address _addr) { \n\t\trequire(msg.sender == _addr);\n\t\t_; \n\t}\n\n\n  function safeDiv(uint a, uint b) internal returns (uint) {\n    assert(b > 0);\n    uint c = a / b;\n    assert(a == b * c + a % b);\n    return c;\n  }\t\n\n\n}\n",
  "sourcePath": "/root/Genaro/Genaro/contracts/RandomFaas.sol",
  "compiler": {
    "name": "solc",
    "version": "0.5.0+commit.1d4f565a.Emscripten.clang"
  },
  "schemaVersion": "3.0.1",
  "updatedAt": "2019-01-28T09:04:17.271Z",
  "devdoc": {
    "methods": {}
  },
  "userdoc": {
    "methods": {}
  }
}